{
  "_format": "hh-sol-artifact-1",
  "contractName": "Crid",
  "sourceName": "contracts/Crid.sol",
  "abi": [
    {
      "inputs": [],
      "stateMutability": "nonpayable",
      "type": "constructor"
    },
    {
      "inputs": [
        {
          "internalType": "address",
          "name": "owner",
          "type": "address"
        }
      ],
      "name": "OwnableInvalidOwner",
      "type": "error"
    },
    {
      "inputs": [
        {
          "internalType": "address",
          "name": "account",
          "type": "address"
        }
      ],
      "name": "OwnableUnauthorizedAccount",
      "type": "error"
    },
    {
      "anonymous": false,
      "inputs": [
        {
          "indexed": true,
          "internalType": "address",
          "name": "previousOwner",
          "type": "address"
        },
        {
          "indexed": true,
          "internalType": "address",
          "name": "newOwner",
          "type": "address"
        }
      ],
      "name": "OwnershipTransferred",
      "type": "event"
    },
    {
      "inputs": [
        {
          "components": [
            {
              "internalType": "uint256",
              "name": "idAluno",
              "type": "uint256"
            },
            {
              "internalType": "string",
              "name": "nomeCurso",
              "type": "string"
            },
            {
              "internalType": "string",
              "name": "nomeProfessor",
              "type": "string"
            },
            {
              "internalType": "uint256",
              "name": "dataEmissao",
              "type": "uint256"
            },
            {
              "internalType": "uint256",
              "name": "nonce",
              "type": "uint256"
            }
          ],
          "internalType": "struct Crid.Certificado",
          "name": "_certificado",
          "type": "tuple"
        }
      ],
      "name": "getMessageHash",
      "outputs": [
        {
          "internalType": "bytes32",
          "name": "",
          "type": "bytes32"
        }
      ],
      "stateMutability": "pure",
      "type": "function"
    },
    {
      "inputs": [],
      "name": "owner",
      "outputs": [
        {
          "internalType": "address",
          "name": "",
          "type": "address"
        }
      ],
      "stateMutability": "view",
      "type": "function"
    },
    {
      "inputs": [],
      "name": "renounceOwnership",
      "outputs": [],
      "stateMutability": "nonpayable",
      "type": "function"
    },
    {
      "inputs": [
        {
          "internalType": "address",
          "name": "newOwner",
          "type": "address"
        }
      ],
      "name": "transferOwnership",
      "outputs": [],
      "stateMutability": "nonpayable",
      "type": "function"
    },
    {
      "inputs": [
        {
          "components": [
            {
              "internalType": "uint256",
              "name": "idAluno",
              "type": "uint256"
            },
            {
              "internalType": "string",
              "name": "nomeCurso",
              "type": "string"
            },
            {
              "internalType": "string",
              "name": "nomeProfessor",
              "type": "string"
            },
            {
              "internalType": "uint256",
              "name": "dataEmissao",
              "type": "uint256"
            },
            {
              "internalType": "uint256",
              "name": "nonce",
              "type": "uint256"
            }
          ],
          "internalType": "struct Crid.Certificado",
          "name": "_certificado",
          "type": "tuple"
        },
        {
          "internalType": "bytes",
          "name": "_assinatura",
          "type": "bytes"
        }
      ],
      "name": "verificarCertificado",
      "outputs": [
        {
          "internalType": "bool",
          "name": "",
          "type": "bool"
        }
      ],
      "stateMutability": "view",
      "type": "function"
    }
  ],
  "bytecode": "0x608060405234801561001057600080fd5b5033600073ffffffffffffffffffffffffffffffffffffffff168173ffffffffffffffffffffffffffffffffffffffff16036100845760006040517f1e4fbdf700000000000000000000000000000000000000000000000000000000815260040161007b919061019e565b60405180910390fd5b6100938161009960201b60201c565b506101b9565b60008060009054906101000a900473ffffffffffffffffffffffffffffffffffffffff169050816000806101000a81548173ffffffffffffffffffffffffffffffffffffffff021916908373ffffffffffffffffffffffffffffffffffffffff1602179055508173ffffffffffffffffffffffffffffffffffffffff168173ffffffffffffffffffffffffffffffffffffffff167f8be0079c531659141344cd1fd0a4f28419497f9722a3daafe3b4186f6b6457e060405160405180910390a35050565b600073ffffffffffffffffffffffffffffffffffffffff82169050919050565b60006101888261015d565b9050919050565b6101988161017d565b82525050565b60006020820190506101b3600083018461018f565b92915050565b610ad0806101c86000396000f3fe608060405234801561001057600080fd5b50600436106100575760003560e01c806349ae51db1461005c578063715018a61461008c578063820822d2146100965780638da5cb5b146100c6578063f2fde38b146100e4575b600080fd5b6100766004803603810190610071919061060e565b610100565b60405161008391906106a5565b60405180910390f35b6100946101e8565b005b6100b060048036038101906100ab91906106c0565b6101fc565b6040516100bd9190610722565b60405180910390f35b6100ce61020e565b6040516100db919061077e565b60405180910390f35b6100fe60048036038101906100f991906107c5565b610237565b005b60008061010c856102bd565b9050600061011982610321565b9050600061016b8287878080601f016020809104026020016040519081016040528093929190818152602001838380828437600081840152601f19601f82011690508083019250505050505050610351565b9050600073ffffffffffffffffffffffffffffffffffffffff168173ffffffffffffffffffffffffffffffffffffffff16141580156101dc57506101ad61020e565b73ffffffffffffffffffffffffffffffffffffffff168173ffffffffffffffffffffffffffffffffffffffff16145b93505050509392505050565b6101f06103c0565b6101fa6000610447565b565b6000610207826102bd565b9050919050565b60008060009054906101000a900473ffffffffffffffffffffffffffffffffffffffff16905090565b61023f6103c0565b600073ffffffffffffffffffffffffffffffffffffffff168173ffffffffffffffffffffffffffffffffffffffff16036102b15760006040517f1e4fbdf70000000000000000000000000000000000000000000000000000000081526004016102a8919061077e565b60405180910390fd5b6102ba81610447565b50565b600081600001358280602001906102d49190610801565b8480604001906102e49190610801565b8660600135876080013560405160200161030497969594939291906108ce565b604051602081830303815290604052805190602001209050919050565b6000816040516020016103349190610996565b604051602081830303815290604052805190602001209050919050565b6000806000806103608561050b565b9250925092506001868285856040516000815260200160405260405161038994939291906109d8565b6020604051602081039080840390855afa1580156103ab573d6000803e3d6000fd5b50505060206040510351935050505092915050565b6103c8610573565b73ffffffffffffffffffffffffffffffffffffffff166103e661020e565b73ffffffffffffffffffffffffffffffffffffffff161461044557610409610573565b6040517f118cdaa700000000000000000000000000000000000000000000000000000000815260040161043c919061077e565b60405180910390fd5b565b60008060009054906101000a900473ffffffffffffffffffffffffffffffffffffffff169050816000806101000a81548173ffffffffffffffffffffffffffffffffffffffff021916908373ffffffffffffffffffffffffffffffffffffffff1602179055508173ffffffffffffffffffffffffffffffffffffffff168173ffffffffffffffffffffffffffffffffffffffff167f8be0079c531659141344cd1fd0a4f28419497f9722a3daafe3b4186f6b6457e060405160405180910390a35050565b60008060006041845114610554576040517f08c379a000000000000000000000000000000000000000000000000000000000815260040161054b90610a7a565b60405180910390fd5b6020840151925060408401519150606084015160001a90509193909250565b600033905090565b600080fd5b600080fd5b600080fd5b600060a082840312156105a05761059f610585565b5b81905092915050565b600080fd5b600080fd5b600080fd5b60008083601f8401126105ce576105cd6105a9565b5b8235905067ffffffffffffffff8111156105eb576105ea6105ae565b5b602083019150836001820283011115610607576106066105b3565b5b9250929050565b6000806000604084860312156106275761062661057b565b5b600084013567ffffffffffffffff81111561064557610644610580565b5b6106518682870161058a565b935050602084013567ffffffffffffffff81111561067257610671610580565b5b61067e868287016105b8565b92509250509250925092565b60008115159050919050565b61069f8161068a565b82525050565b60006020820190506106ba6000830184610696565b92915050565b6000602082840312156106d6576106d561057b565b5b600082013567ffffffffffffffff8111156106f4576106f3610580565b5b6107008482850161058a565b91505092915050565b6000819050919050565b61071c81610709565b82525050565b60006020820190506107376000830184610713565b92915050565b600073ffffffffffffffffffffffffffffffffffffffff82169050919050565b60006107688261073d565b9050919050565b6107788161075d565b82525050565b6000602082019050610793600083018461076f565b92915050565b6107a28161075d565b81146107ad57600080fd5b50565b6000813590506107bf81610799565b92915050565b6000602082840312156107db576107da61057b565b5b60006107e9848285016107b0565b91505092915050565b600080fd5b600080fd5b600080fd5b6000808335600160200384360303811261081e5761081d6107f2565b5b80840192508235915067ffffffffffffffff8211156108405761083f6107f7565b5b60208301925060018202360383131561085c5761085b6107fc565b5b509250929050565b6000819050919050565b6000819050919050565b61088961088482610864565b61086e565b82525050565b600081905092915050565b82818337600083830152505050565b60006108b5838561088f565b93506108c283858461089a565b82840190509392505050565b60006108da828a610878565b6020820191506108eb82888a6108a9565b91506108f88286886108a9565b91506109048285610878565b6020820191506109148284610878565b60208201915081905098975050505050505050565b7f19457468657265756d205369676e6564204d6573736167653a0a333200000000600082015250565b600061095f601c8361088f565b915061096a82610929565b601c82019050919050565b6000819050919050565b61099061098b82610709565b610975565b82525050565b60006109a182610952565b91506109ad828461097f565b60208201915081905092915050565b600060ff82169050919050565b6109d2816109bc565b82525050565b60006080820190506109ed6000830187610713565b6109fa60208301866109c9565b610a076040830185610713565b610a146060830184610713565b95945050505050565b600082825260208201905092915050565b7f417373696e617475726120696e76616c69646100000000000000000000000000600082015250565b6000610a64601383610a1d565b9150610a6f82610a2e565b602082019050919050565b60006020820190508181036000830152610a9381610a57565b905091905056fea2646970667358221220f742bd73b67b5220166431c02fe747f46b51b5f1a4752fcb7f3e1a27d3c087c064736f6c63430008140033",
  "linkReferences": {},
  "deployedLinkReferences": {}
}