{
  "_format": "hh-sol-artifact-1",
  "contractName": "Crid",
  "sourceName": "contracts/Crid.sol",
  "abi": [
    {
      "inputs": [],
      "stateMutability": "nonpayable",
      "type": "constructor"
    },
    {
      "inputs": [
        {
          "internalType": "address",
          "name": "owner",
          "type": "address"
        }
      ],
      "name": "OwnableInvalidOwner",
      "type": "error"
    },
    {
      "inputs": [
        {
          "internalType": "address",
          "name": "account",
          "type": "address"
        }
      ],
      "name": "OwnableUnauthorizedAccount",
      "type": "error"
    },
    {
      "anonymous": false,
      "inputs": [
        {
          "indexed": true,
          "internalType": "uint256",
          "name": "certificateId",
          "type": "uint256"
        },
        {
          "indexed": true,
          "internalType": "address",
          "name": "studentAddress",
          "type": "address"
        },
        {
          "indexed": false,
          "internalType": "string",
          "name": "courseName",
          "type": "string"
        }
      ],
      "name": "CertificateIssued",
      "type": "event"
    },
    {
      "anonymous": false,
      "inputs": [
        {
          "indexed": true,
          "internalType": "uint256",
          "name": "certificateId",
          "type": "uint256"
        }
      ],
      "name": "CertificateRevoked",
      "type": "event"
    },
    {
      "anonymous": false,
      "inputs": [
        {
          "indexed": true,
          "internalType": "address",
          "name": "previousOwner",
          "type": "address"
        },
        {
          "indexed": true,
          "internalType": "address",
          "name": "newOwner",
          "type": "address"
        }
      ],
      "name": "OwnershipTransferred",
      "type": "event"
    },
    {
      "inputs": [
        {
          "internalType": "uint256",
          "name": "_certificateId",
          "type": "uint256"
        }
      ],
      "name": "getCertificate",
      "outputs": [
        {
          "components": [
            {
              "internalType": "uint256",
              "name": "id",
              "type": "uint256"
            },
            {
              "internalType": "address",
              "name": "studentAddress",
              "type": "address"
            },
            {
              "internalType": "string",
              "name": "courseName",
              "type": "string"
            },
            {
              "internalType": "string",
              "name": "professorName",
              "type": "string"
            },
            {
              "internalType": "uint256",
              "name": "issueDate",
              "type": "uint256"
            },
            {
              "internalType": "bool",
              "name": "isValid",
              "type": "bool"
            }
          ],
          "internalType": "struct Crid.Certificado",
          "name": "",
          "type": "tuple"
        }
      ],
      "stateMutability": "view",
      "type": "function"
    },
    {
      "inputs": [
        {
          "internalType": "address",
          "name": "_studentAddress",
          "type": "address"
        },
        {
          "internalType": "string",
          "name": "_courseName",
          "type": "string"
        },
        {
          "internalType": "string",
          "name": "_professorName",
          "type": "string"
        }
      ],
      "name": "issueCertificate",
      "outputs": [],
      "stateMutability": "nonpayable",
      "type": "function"
    },
    {
      "inputs": [],
      "name": "owner",
      "outputs": [
        {
          "internalType": "address",
          "name": "",
          "type": "address"
        }
      ],
      "stateMutability": "view",
      "type": "function"
    },
    {
      "inputs": [],
      "name": "renounceOwnership",
      "outputs": [],
      "stateMutability": "nonpayable",
      "type": "function"
    },
    {
      "inputs": [
        {
          "internalType": "uint256",
          "name": "_certificateId",
          "type": "uint256"
        }
      ],
      "name": "revokeCertificate",
      "outputs": [],
      "stateMutability": "nonpayable",
      "type": "function"
    },
    {
      "inputs": [
        {
          "internalType": "address",
          "name": "newOwner",
          "type": "address"
        }
      ],
      "name": "transferOwnership",
      "outputs": [],
      "stateMutability": "nonpayable",
      "type": "function"
    }
  ],
  "bytecode": "0x608060405234801561001057600080fd5b5033600073ffffffffffffffffffffffffffffffffffffffff168173ffffffffffffffffffffffffffffffffffffffff16036100845760006040517f1e4fbdf700000000000000000000000000000000000000000000000000000000815260040161007b919061019e565b60405180910390fd5b6100938161009960201b60201c565b506101b9565b60008060009054906101000a900473ffffffffffffffffffffffffffffffffffffffff169050816000806101000a81548173ffffffffffffffffffffffffffffffffffffffff021916908373ffffffffffffffffffffffffffffffffffffffff1602179055508173ffffffffffffffffffffffffffffffffffffffff168173ffffffffffffffffffffffffffffffffffffffff167f8be0079c531659141344cd1fd0a4f28419497f9722a3daafe3b4186f6b6457e060405160405180910390a35050565b600073ffffffffffffffffffffffffffffffffffffffff82169050919050565b60006101888261015d565b9050919050565b6101988161017d565b82525050565b60006020820190506101b3600083018461018f565b92915050565b61104a806101c86000396000f3fe608060405234801561001057600080fd5b50600436106100625760003560e01c806306f5497e1461006757806351640fee14610083578063715018a6146100b35780638da5cb5b146100bd578063e98ac4d8146100db578063f2fde38b146100f7575b600080fd5b610081600480360381019061007c91906107ca565b610113565b005b61009d600480360381019061009891906107ca565b6101c7565b6040516100aa9190610982565b60405180910390f35b6100bb61039d565b005b6100c56103b1565b6040516100d291906109b3565b60405180910390f35b6100f560048036038101906100f09190610b2f565b6103da565b005b610111600480360381019061010c9190610bba565b610559565b005b61011b6105df565b60006001600083815260200190815260200160002090506000816004015403610179576040517f08c379a000000000000000000000000000000000000000000000000000000000815260040161017090610c44565b60405180910390fd5b60008160050160006101000a81548160ff021916908315150217905550817fefa6c5f47ac2523bb4db18032377bf7fdce0fa9d86eddcae1ca9bba38be615d760405160405180910390a25050565b6101cf610732565b600160008381526020019081526020016000206040518060c0016040529081600082015481526020016001820160009054906101000a900473ffffffffffffffffffffffffffffffffffffffff1673ffffffffffffffffffffffffffffffffffffffff1673ffffffffffffffffffffffffffffffffffffffff16815260200160028201805461025d90610c93565b80601f016020809104026020016040519081016040528092919081815260200182805461028990610c93565b80156102d65780601f106102ab576101008083540402835291602001916102d6565b820191906000526020600020905b8154815290600101906020018083116102b957829003601f168201915b505050505081526020016003820180546102ef90610c93565b80601f016020809104026020016040519081016040528092919081815260200182805461031b90610c93565b80156103685780601f1061033d57610100808354040283529160200191610368565b820191906000526020600020905b81548152906001019060200180831161034b57829003601f168201915b50505050508152602001600482015481526020016005820160009054906101000a900460ff1615151515815250509050919050565b6103a56105df565b6103af6000610666565b565b60008060009054906101000a900473ffffffffffffffffffffffffffffffffffffffff16905090565b6103e26105df565b600060025490506040518060c001604052808281526020018573ffffffffffffffffffffffffffffffffffffffff16815260200184815260200183815260200142815260200160011515815250600160008381526020019081526020016000206000820151816000015560208201518160010160006101000a81548173ffffffffffffffffffffffffffffffffffffffff021916908373ffffffffffffffffffffffffffffffffffffffff16021790555060408201518160020190816104a89190610e70565b5060608201518160030190816104be9190610e70565b506080820151816004015560a08201518160050160006101000a81548160ff021916908315150217905550905050600260008154809291906104ff90610f71565b91905055508373ffffffffffffffffffffffffffffffffffffffff16817fb7ff6cbe8f0282bf405f9ce3210be62c5620d39139a49186436e3f0fcc6a315a8560405161054b9190610ff2565b60405180910390a350505050565b6105616105df565b600073ffffffffffffffffffffffffffffffffffffffff168173ffffffffffffffffffffffffffffffffffffffff16036105d35760006040517f1e4fbdf70000000000000000000000000000000000000000000000000000000081526004016105ca91906109b3565b60405180910390fd5b6105dc81610666565b50565b6105e761072a565b73ffffffffffffffffffffffffffffffffffffffff166106056103b1565b73ffffffffffffffffffffffffffffffffffffffff16146106645761062861072a565b6040517f118cdaa700000000000000000000000000000000000000000000000000000000815260040161065b91906109b3565b60405180910390fd5b565b60008060009054906101000a900473ffffffffffffffffffffffffffffffffffffffff169050816000806101000a81548173ffffffffffffffffffffffffffffffffffffffff021916908373ffffffffffffffffffffffffffffffffffffffff1602179055508173ffffffffffffffffffffffffffffffffffffffff168173ffffffffffffffffffffffffffffffffffffffff167f8be0079c531659141344cd1fd0a4f28419497f9722a3daafe3b4186f6b6457e060405160405180910390a35050565b600033905090565b6040518060c0016040528060008152602001600073ffffffffffffffffffffffffffffffffffffffff1681526020016060815260200160608152602001600081526020016000151581525090565b6000604051905090565b600080fd5b600080fd5b6000819050919050565b6107a781610794565b81146107b257600080fd5b50565b6000813590506107c48161079e565b92915050565b6000602082840312156107e0576107df61078a565b5b60006107ee848285016107b5565b91505092915050565b61080081610794565b82525050565b600073ffffffffffffffffffffffffffffffffffffffff82169050919050565b600061083182610806565b9050919050565b61084181610826565b82525050565b600081519050919050565b600082825260208201905092915050565b60005b83811015610881578082015181840152602081019050610866565b60008484015250505050565b6000601f19601f8301169050919050565b60006108a982610847565b6108b38185610852565b93506108c3818560208601610863565b6108cc8161088d565b840191505092915050565b60008115159050919050565b6108ec816108d7565b82525050565b600060c08301600083015161090a60008601826107f7565b50602083015161091d6020860182610838565b5060408301518482036040860152610935828261089e565b9150506060830151848203606086015261094f828261089e565b915050608083015161096460808601826107f7565b5060a083015161097760a08601826108e3565b508091505092915050565b6000602082019050818103600083015261099c81846108f2565b905092915050565b6109ad81610826565b82525050565b60006020820190506109c860008301846109a4565b92915050565b6109d781610826565b81146109e257600080fd5b50565b6000813590506109f4816109ce565b92915050565b600080fd5b600080fd5b7f4e487b7100000000000000000000000000000000000000000000000000000000600052604160045260246000fd5b610a3c8261088d565b810181811067ffffffffffffffff82111715610a5b57610a5a610a04565b5b80604052505050565b6000610a6e610780565b9050610a7a8282610a33565b919050565b600067ffffffffffffffff821115610a9a57610a99610a04565b5b610aa38261088d565b9050602081019050919050565b82818337600083830152505050565b6000610ad2610acd84610a7f565b610a64565b905082815260208101848484011115610aee57610aed6109ff565b5b610af9848285610ab0565b509392505050565b600082601f830112610b1657610b156109fa565b5b8135610b26848260208601610abf565b91505092915050565b600080600060608486031215610b4857610b4761078a565b5b6000610b56868287016109e5565b935050602084013567ffffffffffffffff811115610b7757610b7661078f565b5b610b8386828701610b01565b925050604084013567ffffffffffffffff811115610ba457610ba361078f565b5b610bb086828701610b01565b9150509250925092565b600060208284031215610bd057610bcf61078a565b5b6000610bde848285016109e5565b91505092915050565b600082825260208201905092915050565b7f436572746966696361646f206e616f20656e636f6e747261646f000000000000600082015250565b6000610c2e601a83610be7565b9150610c3982610bf8565b602082019050919050565b60006020820190508181036000830152610c5d81610c21565b9050919050565b7f4e487b7100000000000000000000000000000000000000000000000000000000600052602260045260246000fd5b60006002820490506001821680610cab57607f821691505b602082108103610cbe57610cbd610c64565b5b50919050565b60008190508160005260206000209050919050565b60006020601f8301049050919050565b600082821b905092915050565b600060088302610d267fffffffffffffffffffffffffffffffffffffffffffffffffffffffffffffffff82610ce9565b610d308683610ce9565b95508019841693508086168417925050509392505050565b6000819050919050565b6000610d6d610d68610d6384610794565b610d48565b610794565b9050919050565b6000819050919050565b610d8783610d52565b610d9b610d9382610d74565b848454610cf6565b825550505050565b600090565b610db0610da3565b610dbb818484610d7e565b505050565b5b81811015610ddf57610dd4600082610da8565b600181019050610dc1565b5050565b601f821115610e2457610df581610cc4565b610dfe84610cd9565b81016020851015610e0d578190505b610e21610e1985610cd9565b830182610dc0565b50505b505050565b600082821c905092915050565b6000610e4760001984600802610e29565b1980831691505092915050565b6000610e608383610e36565b9150826002028217905092915050565b610e7982610847565b67ffffffffffffffff811115610e9257610e91610a04565b5b610e9c8254610c93565b610ea7828285610de3565b600060209050601f831160018114610eda5760008415610ec8578287015190505b610ed28582610e54565b865550610f3a565b601f198416610ee886610cc4565b60005b82811015610f1057848901518255600182019150602085019450602081019050610eeb565b86831015610f2d5784890151610f29601f891682610e36565b8355505b6001600288020188555050505b505050505050565b7f4e487b7100000000000000000000000000000000000000000000000000000000600052601160045260246000fd5b6000610f7c82610794565b91507fffffffffffffffffffffffffffffffffffffffffffffffffffffffffffffffff8203610fae57610fad610f42565b5b600182019050919050565b6000610fc482610847565b610fce8185610be7565b9350610fde818560208601610863565b610fe78161088d565b840191505092915050565b6000602082019050818103600083015261100c8184610fb9565b90509291505056fea2646970667358221220feeaa3bfd27071ffaf3656def2a55abe2f58221b1f6f4c186be9393a3891359964736f6c63430008140033",
  "linkReferences": {},
  "deployedLinkReferences": {}
}