{
  "_format": "hh-sol-artifact-1",
  "contractName": "Crid",
  "sourceName": "contracts/Crid.sol",
  "abi": [
    {
      "inputs": [],
      "stateMutability": "nonpayable",
      "type": "constructor"
    },
    {
      "inputs": [
        {
          "internalType": "address",
          "name": "sender",
          "type": "address"
        },
        {
          "internalType": "uint256",
          "name": "tokenId",
          "type": "uint256"
        },
        {
          "internalType": "address",
          "name": "owner",
          "type": "address"
        }
      ],
      "name": "ERC721IncorrectOwner",
      "type": "error"
    },
    {
      "inputs": [
        {
          "internalType": "address",
          "name": "operator",
          "type": "address"
        },
        {
          "internalType": "uint256",
          "name": "tokenId",
          "type": "uint256"
        }
      ],
      "name": "ERC721InsufficientApproval",
      "type": "error"
    },
    {
      "inputs": [
        {
          "internalType": "address",
          "name": "approver",
          "type": "address"
        }
      ],
      "name": "ERC721InvalidApprover",
      "type": "error"
    },
    {
      "inputs": [
        {
          "internalType": "address",
          "name": "operator",
          "type": "address"
        }
      ],
      "name": "ERC721InvalidOperator",
      "type": "error"
    },
    {
      "inputs": [
        {
          "internalType": "address",
          "name": "owner",
          "type": "address"
        }
      ],
      "name": "ERC721InvalidOwner",
      "type": "error"
    },
    {
      "inputs": [
        {
          "internalType": "address",
          "name": "receiver",
          "type": "address"
        }
      ],
      "name": "ERC721InvalidReceiver",
      "type": "error"
    },
    {
      "inputs": [
        {
          "internalType": "address",
          "name": "sender",
          "type": "address"
        }
      ],
      "name": "ERC721InvalidSender",
      "type": "error"
    },
    {
      "inputs": [
        {
          "internalType": "uint256",
          "name": "tokenId",
          "type": "uint256"
        }
      ],
      "name": "ERC721NonexistentToken",
      "type": "error"
    },
    {
      "inputs": [
        {
          "internalType": "address",
          "name": "owner",
          "type": "address"
        }
      ],
      "name": "OwnableInvalidOwner",
      "type": "error"
    },
    {
      "inputs": [
        {
          "internalType": "address",
          "name": "account",
          "type": "address"
        }
      ],
      "name": "OwnableUnauthorizedAccount",
      "type": "error"
    },
    {
      "anonymous": false,
      "inputs": [
        {
          "indexed": true,
          "internalType": "address",
          "name": "owner",
          "type": "address"
        },
        {
          "indexed": true,
          "internalType": "address",
          "name": "approved",
          "type": "address"
        },
        {
          "indexed": true,
          "internalType": "uint256",
          "name": "tokenId",
          "type": "uint256"
        }
      ],
      "name": "Approval",
      "type": "event"
    },
    {
      "anonymous": false,
      "inputs": [
        {
          "indexed": true,
          "internalType": "address",
          "name": "owner",
          "type": "address"
        },
        {
          "indexed": true,
          "internalType": "address",
          "name": "operator",
          "type": "address"
        },
        {
          "indexed": false,
          "internalType": "bool",
          "name": "approved",
          "type": "bool"
        }
      ],
      "name": "ApprovalForAll",
      "type": "event"
    },
    {
      "anonymous": false,
      "inputs": [
        {
          "indexed": true,
          "internalType": "address",
          "name": "previousOwner",
          "type": "address"
        },
        {
          "indexed": true,
          "internalType": "address",
          "name": "newOwner",
          "type": "address"
        }
      ],
      "name": "OwnershipTransferred",
      "type": "event"
    },
    {
      "anonymous": false,
      "inputs": [
        {
          "indexed": true,
          "internalType": "address",
          "name": "from",
          "type": "address"
        },
        {
          "indexed": true,
          "internalType": "address",
          "name": "to",
          "type": "address"
        },
        {
          "indexed": true,
          "internalType": "uint256",
          "name": "tokenId",
          "type": "uint256"
        }
      ],
      "name": "Transfer",
      "type": "event"
    },
    {
      "inputs": [
        {
          "internalType": "address",
          "name": "to",
          "type": "address"
        },
        {
          "internalType": "uint256",
          "name": "tokenId",
          "type": "uint256"
        }
      ],
      "name": "approve",
      "outputs": [],
      "stateMutability": "nonpayable",
      "type": "function"
    },
    {
      "inputs": [
        {
          "internalType": "address",
          "name": "owner",
          "type": "address"
        }
      ],
      "name": "balanceOf",
      "outputs": [
        {
          "internalType": "uint256",
          "name": "",
          "type": "uint256"
        }
      ],
      "stateMutability": "view",
      "type": "function"
    },
    {
      "inputs": [
        {
          "internalType": "uint256",
          "name": "tokenId",
          "type": "uint256"
        }
      ],
      "name": "getApproved",
      "outputs": [
        {
          "internalType": "address",
          "name": "",
          "type": "address"
        }
      ],
      "stateMutability": "view",
      "type": "function"
    },
    {
      "inputs": [
        {
          "internalType": "address",
          "name": "owner",
          "type": "address"
        },
        {
          "internalType": "address",
          "name": "operator",
          "type": "address"
        }
      ],
      "name": "isApprovedForAll",
      "outputs": [
        {
          "internalType": "bool",
          "name": "",
          "type": "bool"
        }
      ],
      "stateMutability": "view",
      "type": "function"
    },
    {
      "inputs": [],
      "name": "name",
      "outputs": [
        {
          "internalType": "string",
          "name": "",
          "type": "string"
        }
      ],
      "stateMutability": "view",
      "type": "function"
    },
    {
      "inputs": [],
      "name": "owner",
      "outputs": [
        {
          "internalType": "address",
          "name": "",
          "type": "address"
        }
      ],
      "stateMutability": "view",
      "type": "function"
    },
    {
      "inputs": [
        {
          "internalType": "uint256",
          "name": "tokenId",
          "type": "uint256"
        }
      ],
      "name": "ownerOf",
      "outputs": [
        {
          "internalType": "address",
          "name": "",
          "type": "address"
        }
      ],
      "stateMutability": "view",
      "type": "function"
    },
    {
      "inputs": [],
      "name": "renounceOwnership",
      "outputs": [],
      "stateMutability": "nonpayable",
      "type": "function"
    },
    {
      "inputs": [
        {
          "internalType": "address",
          "name": "to",
          "type": "address"
        }
      ],
      "name": "safeMint",
      "outputs": [
        {
          "internalType": "uint256",
          "name": "",
          "type": "uint256"
        }
      ],
      "stateMutability": "nonpayable",
      "type": "function"
    },
    {
      "inputs": [
        {
          "internalType": "address",
          "name": "from",
          "type": "address"
        },
        {
          "internalType": "address",
          "name": "to",
          "type": "address"
        },
        {
          "internalType": "uint256",
          "name": "tokenId",
          "type": "uint256"
        }
      ],
      "name": "safeTransferFrom",
      "outputs": [],
      "stateMutability": "nonpayable",
      "type": "function"
    },
    {
      "inputs": [
        {
          "internalType": "address",
          "name": "from",
          "type": "address"
        },
        {
          "internalType": "address",
          "name": "to",
          "type": "address"
        },
        {
          "internalType": "uint256",
          "name": "tokenId",
          "type": "uint256"
        },
        {
          "internalType": "bytes",
          "name": "data",
          "type": "bytes"
        }
      ],
      "name": "safeTransferFrom",
      "outputs": [],
      "stateMutability": "nonpayable",
      "type": "function"
    },
    {
      "inputs": [
        {
          "internalType": "address",
          "name": "operator",
          "type": "address"
        },
        {
          "internalType": "bool",
          "name": "approved",
          "type": "bool"
        }
      ],
      "name": "setApprovalForAll",
      "outputs": [],
      "stateMutability": "nonpayable",
      "type": "function"
    },
    {
      "inputs": [
        {
          "internalType": "string",
          "name": "baseURI",
          "type": "string"
        }
      ],
      "name": "setBaseURI",
      "outputs": [],
      "stateMutability": "nonpayable",
      "type": "function"
    },
    {
      "inputs": [
        {
          "internalType": "bytes4",
          "name": "interfaceId",
          "type": "bytes4"
        }
      ],
      "name": "supportsInterface",
      "outputs": [
        {
          "internalType": "bool",
          "name": "",
          "type": "bool"
        }
      ],
      "stateMutability": "view",
      "type": "function"
    },
    {
      "inputs": [],
      "name": "symbol",
      "outputs": [
        {
          "internalType": "string",
          "name": "",
          "type": "string"
        }
      ],
      "stateMutability": "view",
      "type": "function"
    },
    {
      "inputs": [
        {
          "internalType": "uint256",
          "name": "tokenId",
          "type": "uint256"
        }
      ],
      "name": "tokenURI",
      "outputs": [
        {
          "internalType": "string",
          "name": "",
          "type": "string"
        }
      ],
      "stateMutability": "view",
      "type": "function"
    },
    {
      "inputs": [
        {
          "internalType": "address",
          "name": "from",
          "type": "address"
        },
        {
          "internalType": "address",
          "name": "to",
          "type": "address"
        },
        {
          "internalType": "uint256",
          "name": "tokenId",
          "type": "uint256"
        }
      ],
      "name": "transferFrom",
      "outputs": [],
      "stateMutability": "nonpayable",
      "type": "function"
    },
    {
      "inputs": [
        {
          "internalType": "address",
          "name": "newOwner",
          "type": "address"
        }
      ],
      "name": "transferOwnership",
      "outputs": [],
      "stateMutability": "nonpayable",
      "type": "function"
    }
  ],
  "bytecode": "0x60806040523480156200001157600080fd5b50336040518060400160405280600481526020017f43726964000000000000000000000000000000000000000000000000000000008152506040518060400160405280600481526020017f4352494400000000000000000000000000000000000000000000000000000000815250816000908162000090919062000472565b508060019081620000a2919062000472565b505050600073ffffffffffffffffffffffffffffffffffffffff168173ffffffffffffffffffffffffffffffffffffffff16036200011a5760006040517f1e4fbdf70000000000000000000000000000000000000000000000000000000081526004016200011191906200059e565b60405180910390fd5b6200012b816200013260201b60201c565b50620005bb565b6000600660009054906101000a900473ffffffffffffffffffffffffffffffffffffffff16905081600660006101000a81548173ffffffffffffffffffffffffffffffffffffffff021916908373ffffffffffffffffffffffffffffffffffffffff1602179055508173ffffffffffffffffffffffffffffffffffffffff168173ffffffffffffffffffffffffffffffffffffffff167f8be0079c531659141344cd1fd0a4f28419497f9722a3daafe3b4186f6b6457e060405160405180910390a35050565b600081519050919050565b7f4e487b7100000000000000000000000000000000000000000000000000000000600052604160045260246000fd5b7f4e487b7100000000000000000000000000000000000000000000000000000000600052602260045260246000fd5b600060028204905060018216806200027a57607f821691505b60208210810362000290576200028f62000232565b5b50919050565b60008190508160005260206000209050919050565b60006020601f8301049050919050565b600082821b905092915050565b600060088302620002fa7fffffffffffffffffffffffffffffffffffffffffffffffffffffffffffffffff82620002bb565b620003068683620002bb565b95508019841693508086168417925050509392505050565b6000819050919050565b6000819050919050565b6000620003536200034d62000347846200031e565b62000328565b6200031e565b9050919050565b6000819050919050565b6200036f8362000332565b620003876200037e826200035a565b848454620002c8565b825550505050565b600090565b6200039e6200038f565b620003ab81848462000364565b505050565b5b81811015620003d357620003c760008262000394565b600181019050620003b1565b5050565b601f8211156200042257620003ec8162000296565b620003f784620002ab565b8101602085101562000407578190505b6200041f6200041685620002ab565b830182620003b0565b50505b505050565b600082821c905092915050565b6000620004476000198460080262000427565b1980831691505092915050565b600062000462838362000434565b9150826002028217905092915050565b6200047d82620001f8565b67ffffffffffffffff81111562000499576200049862000203565b5b620004a5825462000261565b620004b2828285620003d7565b600060209050601f831160018114620004ea5760008415620004d5578287015190505b620004e1858262000454565b86555062000551565b601f198416620004fa8662000296565b60005b828110156200052457848901518255600182019150602085019450602081019050620004fd565b8683101562000544578489015162000540601f89168262000434565b8355505b6001600288020188555050505b505050505050565b600073ffffffffffffffffffffffffffffffffffffffff82169050919050565b6000620005868262000559565b9050919050565b620005988162000579565b82525050565b6000602082019050620005b560008301846200058d565b92915050565b61255280620005cb6000396000f3fe608060405234801561001057600080fd5b50600436106101165760003560e01c806370a08231116100a2578063a22cb46511610071578063a22cb465146102df578063b88d4fde146102fb578063c87b56dd14610317578063e985e9c514610347578063f2fde38b1461037757610116565b806370a0823114610269578063715018a6146102995780638da5cb5b146102a357806395d89b41146102c157610116565b806323b872dd116100e957806323b872dd146101b557806340d097c3146101d157806342842e0e1461020157806355f804b31461021d5780636352211e1461023957610116565b806301ffc9a71461011b57806306fdde031461014b578063081812fc14610169578063095ea7b314610199575b600080fd5b610135600480360381019061013091906119bd565b610393565b6040516101429190611a05565b60405180910390f35b610153610475565b6040516101609190611ab0565b60405180910390f35b610183600480360381019061017e9190611b08565b610507565b6040516101909190611b76565b60405180910390f35b6101b360048036038101906101ae9190611bbd565b610523565b005b6101cf60048036038101906101ca9190611bfd565b610539565b005b6101eb60048036038101906101e69190611c50565b61063b565b6040516101f89190611c8c565b60405180910390f35b61021b60048036038101906102169190611bfd565b610677565b005b61023760048036038101906102329190611ddc565b610697565b005b610253600480360381019061024e9190611b08565b6106b2565b6040516102609190611b76565b60405180910390f35b610283600480360381019061027e9190611c50565b6106c4565b6040516102909190611c8c565b60405180910390f35b6102a161077e565b005b6102ab610792565b6040516102b89190611b76565b60405180910390f35b6102c96107bc565b6040516102d69190611ab0565b60405180910390f35b6102f960048036038101906102f49190611e51565b61084e565b005b61031560048036038101906103109190611f32565b610864565b005b610331600480360381019061032c9190611b08565b610889565b60405161033e9190611ab0565b60405180910390f35b610361600480360381019061035c9190611fb5565b6108f2565b60405161036e9190611a05565b60405180910390f35b610391600480360381019061038c9190611c50565b610986565b005b60007f80ac58cd000000000000000000000000000000000000000000000000000000007bffffffffffffffffffffffffffffffffffffffffffffffffffffffff1916827bffffffffffffffffffffffffffffffffffffffffffffffffffffffff1916148061045e57507f5b5e139f000000000000000000000000000000000000000000000000000000007bffffffffffffffffffffffffffffffffffffffffffffffffffffffff1916827bffffffffffffffffffffffffffffffffffffffffffffffffffffffff1916145b8061046e575061046d82610a0c565b5b9050919050565b60606000805461048490612024565b80601f01602080910402602001604051908101604052809291908181526020018280546104b090612024565b80156104fd5780601f106104d2576101008083540402835291602001916104fd565b820191906000526020600020905b8154815290600101906020018083116104e057829003601f168201915b5050505050905090565b600061051282610a76565b5061051c82610afe565b9050919050565b6105358282610530610b3b565b610b43565b5050565b600073ffffffffffffffffffffffffffffffffffffffff168273ffffffffffffffffffffffffffffffffffffffff16036105ab5760006040517f64a0ae920000000000000000000000000000000000000000000000000000000081526004016105a29190611b76565b60405180910390fd5b60006105bf83836105ba610b3b565b610b55565b90508373ffffffffffffffffffffffffffffffffffffffff168173ffffffffffffffffffffffffffffffffffffffff1614610635578382826040517f64283d7b00000000000000000000000000000000000000000000000000000000815260040161062c93929190612055565b60405180910390fd5b50505050565b6000610645610d6f565b600060075490506007600081548092919061065f906120bb565b919050555061066e8382610df6565b80915050919050565b61069283838360405180602001604052806000815250610864565b505050565b61069f610d6f565b80600890816106ae91906122af565b5050565b60006106bd82610a76565b9050919050565b60008073ffffffffffffffffffffffffffffffffffffffff168273ffffffffffffffffffffffffffffffffffffffff16036107375760006040517f89c62b6400000000000000000000000000000000000000000000000000000000815260040161072e9190611b76565b60405180910390fd5b600360008373ffffffffffffffffffffffffffffffffffffffff1673ffffffffffffffffffffffffffffffffffffffff168152602001908152602001600020549050919050565b610786610d6f565b6107906000610e14565b565b6000600660009054906101000a900473ffffffffffffffffffffffffffffffffffffffff16905090565b6060600180546107cb90612024565b80601f01602080910402602001604051908101604052809291908181526020018280546107f790612024565b80156108445780601f1061081957610100808354040283529160200191610844565b820191906000526020600020905b81548152906001019060200180831161082757829003601f168201915b5050505050905090565b610860610859610b3b565b8383610eda565b5050565b61086f848484610539565b61088361087a610b3b565b85858585611049565b50505050565b606061089482610a76565b50600061089f6111fa565b905060008151116108bf57604051806020016040528060008152506108ea565b806108c98461128c565b6040516020016108da9291906123bd565b6040516020818303038152906040525b915050919050565b6000600560008473ffffffffffffffffffffffffffffffffffffffff1673ffffffffffffffffffffffffffffffffffffffff16815260200190815260200160002060008373ffffffffffffffffffffffffffffffffffffffff1673ffffffffffffffffffffffffffffffffffffffff16815260200190815260200160002060009054906101000a900460ff16905092915050565b61098e610d6f565b600073ffffffffffffffffffffffffffffffffffffffff168173ffffffffffffffffffffffffffffffffffffffff1603610a005760006040517f1e4fbdf70000000000000000000000000000000000000000000000000000000081526004016109f79190611b76565b60405180910390fd5b610a0981610e14565b50565b60007f01ffc9a7000000000000000000000000000000000000000000000000000000007bffffffffffffffffffffffffffffffffffffffffffffffffffffffff1916827bffffffffffffffffffffffffffffffffffffffffffffffffffffffff1916149050919050565b600080610a828361135a565b9050600073ffffffffffffffffffffffffffffffffffffffff168173ffffffffffffffffffffffffffffffffffffffff1603610af557826040517f7e273289000000000000000000000000000000000000000000000000000000008152600401610aec9190611c8c565b60405180910390fd5b80915050919050565b60006004600083815260200190815260200160002060009054906101000a900473ffffffffffffffffffffffffffffffffffffffff169050919050565b600033905090565b610b508383836001611397565b505050565b600080610b618461135a565b9050600073ffffffffffffffffffffffffffffffffffffffff168373ffffffffffffffffffffffffffffffffffffffff1614610ba357610ba281848661155c565b5b600073ffffffffffffffffffffffffffffffffffffffff168173ffffffffffffffffffffffffffffffffffffffff1614610c3457610be5600085600080611397565b6001600360008373ffffffffffffffffffffffffffffffffffffffff1673ffffffffffffffffffffffffffffffffffffffff168152602001908152602001600020600082825403925050819055505b600073ffffffffffffffffffffffffffffffffffffffff168573ffffffffffffffffffffffffffffffffffffffff1614610cb7576001600360008773ffffffffffffffffffffffffffffffffffffffff1673ffffffffffffffffffffffffffffffffffffffff168152602001908152602001600020600082825401925050819055505b846002600086815260200190815260200160002060006101000a81548173ffffffffffffffffffffffffffffffffffffffff021916908373ffffffffffffffffffffffffffffffffffffffff160217905550838573ffffffffffffffffffffffffffffffffffffffff168273ffffffffffffffffffffffffffffffffffffffff167fddf252ad1be2c89b69c2b068fc378daa952ba7f163c4a11628f55a4df523b3ef60405160405180910390a4809150509392505050565b610d77610b3b565b73ffffffffffffffffffffffffffffffffffffffff16610d95610792565b73ffffffffffffffffffffffffffffffffffffffff1614610df457610db8610b3b565b6040517f118cdaa7000000000000000000000000000000000000000000000000000000008152600401610deb9190611b76565b60405180910390fd5b565b610e10828260405180602001604052806000815250611620565b5050565b6000600660009054906101000a900473ffffffffffffffffffffffffffffffffffffffff16905081600660006101000a81548173ffffffffffffffffffffffffffffffffffffffff021916908373ffffffffffffffffffffffffffffffffffffffff1602179055508173ffffffffffffffffffffffffffffffffffffffff168173ffffffffffffffffffffffffffffffffffffffff167f8be0079c531659141344cd1fd0a4f28419497f9722a3daafe3b4186f6b6457e060405160405180910390a35050565b600073ffffffffffffffffffffffffffffffffffffffff168273ffffffffffffffffffffffffffffffffffffffff1603610f4b57816040517f5b08ba18000000000000000000000000000000000000000000000000000000008152600401610f429190611b76565b60405180910390fd5b80600560008573ffffffffffffffffffffffffffffffffffffffff1673ffffffffffffffffffffffffffffffffffffffff16815260200190815260200160002060008473ffffffffffffffffffffffffffffffffffffffff1673ffffffffffffffffffffffffffffffffffffffff16815260200190815260200160002060006101000a81548160ff0219169083151502179055508173ffffffffffffffffffffffffffffffffffffffff168373ffffffffffffffffffffffffffffffffffffffff167f17307eab39ab6107e8899845ad3d59bd9653f200f220920489ca2b5937696c318360405161103c9190611a05565b60405180910390a3505050565b60008373ffffffffffffffffffffffffffffffffffffffff163b11156111f3578273ffffffffffffffffffffffffffffffffffffffff1663150b7a02868685856040518563ffffffff1660e01b81526004016110a89493929190612436565b6020604051808303816000875af19250505080156110e457506040513d601f19601f820116820180604052508101906110e19190612497565b60015b611168573d8060008114611114576040519150601f19603f3d011682016040523d82523d6000602084013e611119565b606091505b50600081510361116057836040517f64a0ae920000000000000000000000000000000000000000000000000000000081526004016111579190611b76565b60405180910390fd5b805181602001fd5b63150b7a0260e01b7bffffffffffffffffffffffffffffffffffffffffffffffffffffffff1916817bffffffffffffffffffffffffffffffffffffffffffffffffffffffff1916146111f157836040517f64a0ae920000000000000000000000000000000000000000000000000000000081526004016111e89190611b76565b60405180910390fd5b505b5050505050565b60606008805461120990612024565b80601f016020809104026020016040519081016040528092919081815260200182805461123590612024565b80156112825780601f1061125757610100808354040283529160200191611282565b820191906000526020600020905b81548152906001019060200180831161126557829003601f168201915b5050505050905090565b60606000600161129b84611644565b01905060008167ffffffffffffffff8111156112ba576112b9611cb1565b5b6040519080825280601f01601f1916602001820160405280156112ec5781602001600182028036833780820191505090505b509050600082602001820190505b60011561134f578080600190039150507f3031323334353637383961626364656600000000000000000000000000000000600a86061a8153600a8581611343576113426124c4565b5b049450600085036112fa575b819350505050919050565b60006002600083815260200190815260200160002060009054906101000a900473ffffffffffffffffffffffffffffffffffffffff169050919050565b80806113d05750600073ffffffffffffffffffffffffffffffffffffffff168273ffffffffffffffffffffffffffffffffffffffff1614155b156115045760006113e084610a76565b9050600073ffffffffffffffffffffffffffffffffffffffff168373ffffffffffffffffffffffffffffffffffffffff161415801561144b57508273ffffffffffffffffffffffffffffffffffffffff168173ffffffffffffffffffffffffffffffffffffffff1614155b801561145e575061145c81846108f2565b155b156114a057826040517fa9fbf51f0000000000000000000000000000000000000000000000000000000081526004016114979190611b76565b60405180910390fd5b811561150257838573ffffffffffffffffffffffffffffffffffffffff168273ffffffffffffffffffffffffffffffffffffffff167f8c5be1e5ebec7d5bd14f71427d1e84f3dd0314c0f7b2291e5b200ac8c7c3b92560405160405180910390a45b505b836004600085815260200190815260200160002060006101000a81548173ffffffffffffffffffffffffffffffffffffffff021916908373ffffffffffffffffffffffffffffffffffffffff16021790555050505050565b611567838383611797565b61161b57600073ffffffffffffffffffffffffffffffffffffffff168373ffffffffffffffffffffffffffffffffffffffff16036115dc57806040517f7e2732890000000000000000000000000000000000000000000000000000000081526004016115d39190611c8c565b60405180910390fd5b81816040517f177e802f0000000000000000000000000000000000000000000000000000000081526004016116129291906124f3565b60405180910390fd5b505050565b61162a8383611858565b61163f611635610b3b565b6000858585611049565b505050565b600080600090507a184f03e93ff9f4daa797ed6e38ed64bf6a1f01000000000000000083106116a2577a184f03e93ff9f4daa797ed6e38ed64bf6a1f0100000000000000008381611698576116976124c4565b5b0492506040810190505b6d04ee2d6d415b85acef810000000083106116df576d04ee2d6d415b85acef810000000083816116d5576116d46124c4565b5b0492506020810190505b662386f26fc10000831061170e57662386f26fc100008381611704576117036124c4565b5b0492506010810190505b6305f5e1008310611737576305f5e100838161172d5761172c6124c4565b5b0492506008810190505b612710831061175c576127108381611752576117516124c4565b5b0492506004810190505b6064831061177f5760648381611775576117746124c4565b5b0492506002810190505b600a831061178e576001810190505b80915050919050565b60008073ffffffffffffffffffffffffffffffffffffffff168373ffffffffffffffffffffffffffffffffffffffff161415801561184f57508273ffffffffffffffffffffffffffffffffffffffff168473ffffffffffffffffffffffffffffffffffffffff161480611810575061180f84846108f2565b5b8061184e57508273ffffffffffffffffffffffffffffffffffffffff1661183683610afe565b73ffffffffffffffffffffffffffffffffffffffff16145b5b90509392505050565b600073ffffffffffffffffffffffffffffffffffffffff168273ffffffffffffffffffffffffffffffffffffffff16036118ca5760006040517f64a0ae920000000000000000000000000000000000000000000000000000000081526004016118c19190611b76565b60405180910390fd5b60006118d883836000610b55565b9050600073ffffffffffffffffffffffffffffffffffffffff168173ffffffffffffffffffffffffffffffffffffffff161461194c5760006040517f73c6ac6e0000000000000000000000000000000000000000000000000000000081526004016119439190611b76565b60405180910390fd5b505050565b6000604051905090565b600080fd5b600080fd5b60007fffffffff0000000000000000000000000000000000000000000000000000000082169050919050565b61199a81611965565b81146119a557600080fd5b50565b6000813590506119b781611991565b92915050565b6000602082840312156119d3576119d261195b565b5b60006119e1848285016119a8565b91505092915050565b60008115159050919050565b6119ff816119ea565b82525050565b6000602082019050611a1a60008301846119f6565b92915050565b600081519050919050565b600082825260208201905092915050565b60005b83811015611a5a578082015181840152602081019050611a3f565b60008484015250505050565b6000601f19601f8301169050919050565b6000611a8282611a20565b611a8c8185611a2b565b9350611a9c818560208601611a3c565b611aa581611a66565b840191505092915050565b60006020820190508181036000830152611aca8184611a77565b905092915050565b6000819050919050565b611ae581611ad2565b8114611af057600080fd5b50565b600081359050611b0281611adc565b92915050565b600060208284031215611b1e57611b1d61195b565b5b6000611b2c84828501611af3565b91505092915050565b600073ffffffffffffffffffffffffffffffffffffffff82169050919050565b6000611b6082611b35565b9050919050565b611b7081611b55565b82525050565b6000602082019050611b8b6000830184611b67565b92915050565b611b9a81611b55565b8114611ba557600080fd5b50565b600081359050611bb781611b91565b92915050565b60008060408385031215611bd457611bd361195b565b5b6000611be285828601611ba8565b9250506020611bf385828601611af3565b9150509250929050565b600080600060608486031215611c1657611c1561195b565b5b6000611c2486828701611ba8565b9350506020611c3586828701611ba8565b9250506040611c4686828701611af3565b9150509250925092565b600060208284031215611c6657611c6561195b565b5b6000611c7484828501611ba8565b91505092915050565b611c8681611ad2565b82525050565b6000602082019050611ca16000830184611c7d565b92915050565b600080fd5b600080fd5b7f4e487b7100000000000000000000000000000000000000000000000000000000600052604160045260246000fd5b611ce982611a66565b810181811067ffffffffffffffff82111715611d0857611d07611cb1565b5b80604052505050565b6000611d1b611951565b9050611d278282611ce0565b919050565b600067ffffffffffffffff821115611d4757611d46611cb1565b5b611d5082611a66565b9050602081019050919050565b82818337600083830152505050565b6000611d7f611d7a84611d2c565b611d11565b905082815260208101848484011115611d9b57611d9a611cac565b5b611da6848285611d5d565b509392505050565b600082601f830112611dc357611dc2611ca7565b5b8135611dd3848260208601611d6c565b91505092915050565b600060208284031215611df257611df161195b565b5b600082013567ffffffffffffffff811115611e1057611e0f611960565b5b611e1c84828501611dae565b91505092915050565b611e2e816119ea565b8114611e3957600080fd5b50565b600081359050611e4b81611e25565b92915050565b60008060408385031215611e6857611e6761195b565b5b6000611e7685828601611ba8565b9250506020611e8785828601611e3c565b9150509250929050565b600067ffffffffffffffff821115611eac57611eab611cb1565b5b611eb582611a66565b9050602081019050919050565b6000611ed5611ed084611e91565b611d11565b905082815260208101848484011115611ef157611ef0611cac565b5b611efc848285611d5d565b509392505050565b600082601f830112611f1957611f18611ca7565b5b8135611f29848260208601611ec2565b91505092915050565b60008060008060808587031215611f4c57611f4b61195b565b5b6000611f5a87828801611ba8565b9450506020611f6b87828801611ba8565b9350506040611f7c87828801611af3565b925050606085013567ffffffffffffffff811115611f9d57611f9c611960565b5b611fa987828801611f04565b91505092959194509250565b60008060408385031215611fcc57611fcb61195b565b5b6000611fda85828601611ba8565b9250506020611feb85828601611ba8565b9150509250929050565b7f4e487b7100000000000000000000000000000000000000000000000000000000600052602260045260246000fd5b6000600282049050600182168061203c57607f821691505b60208210810361204f5761204e611ff5565b5b50919050565b600060608201905061206a6000830186611b67565b6120776020830185611c7d565b6120846040830184611b67565b949350505050565b7f4e487b7100000000000000000000000000000000000000000000000000000000600052601160045260246000fd5b60006120c682611ad2565b91507fffffffffffffffffffffffffffffffffffffffffffffffffffffffffffffffff82036120f8576120f761208c565b5b600182019050919050565b60008190508160005260206000209050919050565b60006020601f8301049050919050565b600082821b905092915050565b6000600883026121657fffffffffffffffffffffffffffffffffffffffffffffffffffffffffffffffff82612128565b61216f8683612128565b95508019841693508086168417925050509392505050565b6000819050919050565b60006121ac6121a76121a284611ad2565b612187565b611ad2565b9050919050565b6000819050919050565b6121c683612191565b6121da6121d2826121b3565b848454612135565b825550505050565b600090565b6121ef6121e2565b6121fa8184846121bd565b505050565b5b8181101561221e576122136000826121e7565b600181019050612200565b5050565b601f8211156122635761223481612103565b61223d84612118565b8101602085101561224c578190505b61226061225885612118565b8301826121ff565b50505b505050565b600082821c905092915050565b600061228660001984600802612268565b1980831691505092915050565b600061229f8383612275565b9150826002028217905092915050565b6122b882611a20565b67ffffffffffffffff8111156122d1576122d0611cb1565b5b6122db8254612024565b6122e6828285612222565b600060209050601f8311600181146123195760008415612307578287015190505b6123118582612293565b865550612379565b601f19841661232786612103565b60005b8281101561234f5784890151825560018201915060208501945060208101905061232a565b8683101561236c5784890151612368601f891682612275565b8355505b6001600288020188555050505b505050505050565b600081905092915050565b600061239782611a20565b6123a18185612381565b93506123b1818560208601611a3c565b80840191505092915050565b60006123c9828561238c565b91506123d5828461238c565b91508190509392505050565b600081519050919050565b600082825260208201905092915050565b6000612408826123e1565b61241281856123ec565b9350612422818560208601611a3c565b61242b81611a66565b840191505092915050565b600060808201905061244b6000830187611b67565b6124586020830186611b67565b6124656040830185611c7d565b818103606083015261247781846123fd565b905095945050505050565b60008151905061249181611991565b92915050565b6000602082840312156124ad576124ac61195b565b5b60006124bb84828501612482565b91505092915050565b7f4e487b7100000000000000000000000000000000000000000000000000000000600052601260045260246000fd5b60006040820190506125086000830185611b67565b6125156020830184611c7d565b939250505056fea264697066735822122002dc4e3770bcaf2ec714a511aa49d55eaa3f258465c2490cfe4ec88ed8c4378a64736f6c63430008140033",
  "linkReferences": {},
  "deployedLinkReferences": {}
}